:400000000080002011000000910C0000910C000008B5044B1A6803F53F5302331A6000F03FFE00BFFA46004010B5054C237833B9044B13B10448AFF300800123237010BD00
:40004000C082FF1F0000000090270000084B10B51BB108490848AFF300800848036803B910BD074B002BFBD0BDE81040184700BF00000000C482FF1F90270000C880FF1FA2
:400080000000000008B501F0E1FF01F0F3FF002008BD00BF70B506460D46002001F0EEFF002001F0F7FF84B2012001F0F3FF80B2D4F5006400D50F3444F307143470D0F5F6
:4000C000006000D50F3040F307102870002070BD38B504460D46032824D8DFE800F00209101E084601F00AFF104B1D55002038BD084601F00FFF0D4B1D55002038BD084618
:4001000001F014FF094B1D55002038BD29462046FFF7DEFF0134E4B200E00024022CF5D9002038BD6FF0130038BD00BFDC82FF1F70B50E461546074C34F8100001F00EFE56
:4001400034F8160001F07CFE34F8150001F0C6FF002070BD9427000038B50024254609E000210C4B19552046FFF7B2FF00B105460134E4B2022CF3D902F000F801F0B0FE31
:4001800001F03CFE002211461046FFF7D1FF284638BD00BFDC82FF1FF0B401240EE0171B094BA3FB0053DB081E4603EB83035D00431B3033CB5530460134E4B29442EED9DC
:4001C00000208854F0BC7047CDCCCCCC08B5064A137823F008031370002101F059FD0020024B187008BD00BFC080FF1FDF82FF1F08B501F06DFD002008BD00BF024B1878DF
:40020000C0F3C000704700BFC080FF1F03281FD8DFE800F0020910170F4A137843F001031370002070470C4A137843F00203137000207047084A137843F0040313700020CA
:400240007047054A137843F008031370002070476FF01400704700BFDF82FF1F08B5002000F06CFF08BD00BF684620F007018D4619B572B6EFF311841E4B1B68DBB20F2B78
:4002800010D9103B23F0030202F1604202F564421168DB0003F01803E0229A400A4022FA03F306E00F2B03D1134B1B681B0E00E0002383F31188114A136801331360012B6D
:4002C00001D102F0B3F862B6FFF7C8FF72B684F3118801F02DF9094A1368013B13601BB902F0ADF802F071F862B6BDE819408546704700BF04ED00E020ED00E0C883FF1FAA
:4003000008B562B645F6BF52054B1A60054A136843F002031360002001F006FAFBE700BF14E000E010E000E008B5FFF715FFFFF7A9FE01F0E3FAFFF761FF012803D1134827
:4003400001F022FB02E0124801F01EFB0320FFF73DFF01F04DFA0F4A136843F00503136001221146002000F06BFD01221146104600F066FD022000F0EFFC032000F0ECFC0D
:40038000012000F0E9FC01F015FA08BD94290000B829000010E000E008B501F0F9FF012802D10122014B1A7008BD00BFBA83FF1F684620F007018D4619B572B6EFF3118494
:4003C0001E4B1B68DBB20F2B10D9103B23F0030202F1604202F564421168DB0003F01803E0229A400A4022FA03F306E00F2B03D1134B1B681B0E00E0002383F31188114AC7
:40040000136801331360012B01D102F00FF862B6FFF7C2FF72B684F3118801F089F8094A1368013B13601BB902F009F801F0CDFF62B6BDE819408546704700BF04ED00E001
:4004400020ED00E0C883FF1F08B501F0A9FF012802D1102001F020F908BD00BF684620F007018D4619B572B6EFF311841E4B1B68DBB20F2B10D9103B23F0030202F160427C
:4004800002F564421168DB0003F01803E0229A400A4022FA03F306E00F2B03D1134B1B681B0E00E0002383F31188114A136801331360012B01D101F0B9FF62B6FFF7C4FF00
:4004C00072B684F3118801F033F8094A1368013B13601BB901F0B3FF01F077FF62B6BDE819408546704700BF04ED00E020ED00E0C883FF1F38B50320FFF788FE10B1254815
:4005000001F042FA244B1B7853B90124234B1C70234801F039FA21460020FFF7D9FD09E000241E4B1C701F4801F02EFA21462046FFF7CEFD194B19781B4B9A681970002168
:400540005960022159705569936873B13DB90CE0996855F8240000F097FE013400E00024114B9B681A699442F2D30F4B5B78022B04D10D4883685B68984701E04FF0FF300A
:4005800030B10A4801F000FA01210846FFF7A0FD38BD00BFDC290000D880FF1FE082FF1F082A0000182A0000F080FF1F282A000030B585B00120FFF729FE2D4B1B88ADF8FF
:4005C0000830ADF8003043F30723002B0BDD284B1B88ADF80C30ADF8043043F307235B00244A137002E00022224B1A70224B1B78012B2BD01F4B1978204B9A6819700021CB
:400600005960022159705569936873B13DB90CE0996855F8240000F037FE013400E00024164B9B681A699442F2D3154801F0ACF9144C04222146114B1878FFF7ADFD204632
:4006400001F0A2F9104801F09FF90FE00B4B5A6841F287339A4206D90022074B1A700B4801F092F902E00A4801F08EF905B030BDCC80FF1FE482FF1FBA83FF1FD880FF1F84
:40068000582A0000E882FF1FC02A0000642A0000882A000038B50220FFF7B8FD10B1334801F072F9324B5B68632B07D8304B1A78304B1A70304801F067F912E02F4801F0D2
:4006C00063F92C4C251D04222946294B5868FFF763FD284601F058F9294801F055F900232370244B1978274B9A68197000215960022159705569936873B13DB90CE099682C
:4007000055F8240000F0C0FD013400E000241D4B9B681A699442F2D31A4B5B78022B04D1184883685B68984701E04FF0FF3030B1154801F029F901210846FFF7C9FC0D4C8E
:40074000002214F8041B1046FFF7F2FC0F4801F01BF9042221460B4B1878FFF71DFD204601F012F90A4801F00FF938BDDC290000D880FF1F0883FF1FB02A0000C42A000085
:40078000E42A0000E480FF1FEC2A00001C2B0000C02A000070B582B00020FFF737FD304B93F9003013B12F4801F0EEF82E4B9B681A68002A3DD02C4A128802A820F8082D3C
:4007C0001B6898470546E8B9BDF80010ADF80410254B9A6819800021596002219970566993683BB33EB925E0996856F8240000F04BFD013400E000241B4B9B681A699442D2
:40080000F2D317E0184B03229A709B68DE69DB6883B13EB90EE0D96856F8240000F034FD013400E00024104B9B689A699442F2D300E000250A4B1D707DB10C4801F0A4F8C5
:400840000B4C04222146084B9878FFF7A5FC204601F09AF8074801F097F802B070BD00BF2C83FF1FDC290000CC80FF1F282B00003083FF1FB429000008B5064B1B7803F073
:400880000F030F2BF9D1FFF7B3FC0022014B1A70F3E700BFDF82FF1F00B583B000230193012000F071FD01A9032000F0CDFC019800F09CFC019A0121014800F04DF8EFE797
:4008C0005C2B000010B582B000230193062000F05BFD01A9022000F0B7FC019800F086FC019B13F0040F0DD0094C22680221094800F01AF823680133236013F5807F01D9D4
:4009000000222260019A0121034800F025F8DDE75083FF1F682B0000782B000008B5012000F038F808BD00BFF8B506460F46154600240DE006EBC4039A88B5FBF2F302FB6B
:4009400013531BB956F83430002098470134A4B2BC42EFD3F8BD00BFF8B505460E461746002409E005EBC4035868384202D055F8343098470134A4B2B442F3D3F8BD00BF09
:40098000002070470020704708B5411CFFF782FB08BD00BF104B5B68034413F1011F01D80D4A53600C4B1B69034413F1011F01D8094A1361084BDB69034413F1011F01D84B
:4009C000054AD361044B9B6A184410F1011F01D8014B9862704700BFCC80FF1FFEE700BFF0B40022174611E050F82760F3B226F0FF0608E001EB420511F812406D78A55508
:400A00000132013BDBB2002BF4D10137272FEBD9F0BC704708B50A46002101F0B0FE08BD38B50222274B1A80182327490B700E200231088002310B70192502310D80023178
:400A40000B70224B1A7008224FF040231A70032103F5007319701E4B1B78DBB21D490B701D4B1A8041F25122023B1A8000240CE01A4B1B7803F0010343EA440404F003043E
:400A80004FF4F07001F058FD013D0DB1032CEFD115B90320FFF7A2FF114B4FF480721A8007221A7000220F490A704820023108701A700222033B1A700B4A137843F0070362
:400AC000137038BD80400040824000400043004008010049A146004022420040254200400440004006400040A2430040F8B5164B1B78DBB2154E3478E4B2154F3D78EDB27B
:400B000003F00701134A11701B090132137044F00303337045F003033B7003220E4B1A7040230E4A13700232137030220C4B1A70202203331A700A2001F0A0F83D70347009
:400B40004422084B1A70F8BDCF010049F8460040F94600406E5800400D51004001590040205B00407658004008B501F0FDFD08BD38B572B600240CE0344D630019194A006E
:400B800011462A44084691882858FFF743FF0134E4B2082CF0D900240CE02C48A20011194B000344B3F84020D96B986BFFF7DCFF0134E4B2012CF0D925494FF09040FFF750
:400BC0000FFF04212348FFF725FF042222492348FFF7CAFF224A137843F0020313701032137843F0020313701E4C237843F040032370A2F58632513A137843F0100313700C
:400C0000082219491948FFF7AFFF0A2218491948FFF7AAFF082218491848FFF7A5FF184A137843F008031370164D61232B70FFF7F7FE81232B700122134B1A70FFF756FF61
:400C40000E2221461148FFF78FFF38BD2C2C0000A0000048007600408C0A00480876004003500140A0430040700A004802510040780A0048C0510040840A004822510040C9
:400C8000224300400048004004000840B043004008B501F03DFD03680C2B00D1FEE7FEE708B5104E104D16E029686B68AC68002204E051F8040B43F8040B0432A242F8D1F2
:400CC000E868002203E0002143F8041B04328242F9D11035013E002EE6D101F01FFDFFF70FFBFEE7010000003C2F000008B5114A114B1A60114A136843F400731360002395
:400D00000AE0032B03D80E4A52F8231000E00D490D4A42F8231001332F2BF2D90B4B1A780B4B1A70084A0B4B1A60FFF721FF00F0C3FE08BD0004FA050CED00E014ED00E065
:400D400000000000910C00000080FF1FBC760040C080FF1F08ED00E038B5EFF3108572B604284ED82D4B53F82030002B4BD02B4A013B42F820302A4B53F82030032B07D10B
:400D80000222274B43F820200022264B43F8202000F03EFC244B1B68002B36D1234B1C6800F014FCB0F1FF3F31D0214B53F82020204B1B689A422CD9B4F1FF3F03D0022155
:400DC000174A42F824101C4A52F820201343194A13600022124B43F8202000F0B3FB174B53F820304BB10024144B43F8204040F0004001F02DFB20460CE001F029FB002049
:400E000008E0032006E0042004E0002002E0002000E0002085F3108838BD00BF4881FF1FF481FF1F7C83FF1FC883FF1FDC81FF1F282E00009883FF1F082E00005483FF1F9E
:400E4000F8B5EFF3108472B6012825D800EB4005AB00184DEB5803EB4306B500164E75598D421BD34AB103EB43039E00124B1E44B3689A4214D3954214D3A9B103010F4DC1
:400E8000EB589BB90301EE180127EF507260013900F086F800200AE0032008E0082006E0082004E0082002E0082000E0072084F31088F8BDAC2D0000D42D0000E087FF1F25
:400EC00018B108B5C368984708BD704708B508B1406800E00020042816D80C4B53F8203093B10A4A013B42F82030094B53F82030032B07D10222064B43F820200022054B07
:400F000043F8202000F084FB08BD00BF4881FF1FF481FF1F7C83FF1F18B1034640689B6801E00023184604281DD80F4A52F82020CAB10E4A52F82010032914D010B50C4C0F
:400F400054F820201A4344F820200A4A52F82020134207D0012905D10222044B43F8202000F056FB10BD7047E02D0000F481FF1F7C83FF1F6883FF1F80B108B50378012BF4
:400F800006D013B1032B06D008BDFFF79FFF08BDFFF7C2FF08BDFFF793FF08BD704700BF30B400EB40029300214AD258214B03EBC2035C68B4F1FF3F04D11E4B03EBC20247
:400FC00050602DE01C4B03EB04139B6899420AD2184D05EBC2025060174A02EB04125B1A93601DE01C46144B03EB04139A68891ADB68B3F1FF3F05D00F4A02EB03129268C2
:401000009142EFD2B3F1FF3F05D00B4A02EB031295686D1A9560084A02EB0414E0601C46054B03EB00108160C46030BC704700BFAC2D00000481FF1FE087FF1F38B5394A76
:4010400002EBC0035C6852F83030013342F8303000EB40018A0034498A58934203D90022304B43F83020B4F1FF3F59D02F4B03EB04139B68002B4ED1214600E019462B4BA2
:4010800003EB0113DB68B3F1FF3F05D0274A02EB03129268002AF1D0244A02EB01114FF0FF32CA601F4A02EBC0004360B3F1FF3F07D01E4A02EB03139A68013A9A6000E0E1
:4010C0002C4604EB44029300194A13441B7A7BB904EB44029300164A13445A68154B53F8223003EB83039A0013481044FFF744FF0E4B03EB0413DD68596821B10139204629
:40110000FFF74EFF03E024010022084B1A51B5F1FF3FD5D138BD054A02EB0414013BA36038BD00BF0481FF1FD42D0000E087FF1FAC2D0000CC2D0000842D000038B5EFF343
:40114000108572B6002838D1FFF778FF204B1B68002B34D11F4B1C6800F038FAB0F1FF3F2FD01D4B53F820201C4B1B689A422AD9B4F1FF3F03D00221194A42F82410194A3F
:4011800052F820201343154A13600022144B43F8202000F0D7F9144B53F820304BB10024114B43F8204040F0004001F051F920460AE001F04DF9002006E0032004E0002051
:4011C00002E0002000E0002085F3108838BD00BFC883FF1FDC81FF1F282E00009883FF1FF481FF1F082E00005483FF1FEFF3108372B6114A1168114A126882B9B1F1FF3F97
:401200000FD00F4A52F821206AB110B40D4C54F8212022EA000044F82100002007E0022002E0022000E0012083F31088704783F3108810BC704700BFDC81FF1FC883FF1F96
:40124000E02D00007C83FF1F04280FD80B4B53F820306BB10A4B53F82030032B0AD059B1084B53F820300B60002070470320704701207047072070470E207047E02D000070
:40128000F481FF1F7C83FF1F38B5EFF3108472B6042853D8324B53F82030002B50D0314B53F82030032B4DD02F4D55F820200A4345F820202D4A52F82020114244D0012B70
:4012C00044D10222274B43F8202000F0A1F9284B1B68002B3CD1274B1D6800F077F9B0F1FF3F37D0244B53F82020244B1B689A4232D9B5F1FF3F03D002211A4A42F8251053
:401300001F4A52F8202013431C4A13600022154B43F8202000F016F91A4B53F820304BB10025184B43F8205040F0004001F090F8284612E001F08CF800200EE003200CE085
:4013400001200AE0072008E0002006E0002004E0002002E0002000E0002084F3108838BDE02D0000F481FF1F7C83FF1F6883FF1FC883FF1FDC81FF1F282E00009883FF1FEA
:40138000082E00005483FF1F38B5EFF3108472B6364B1D68364B1B68002B5DD1B5F1FF3F5CD0344B53F82530002B59D0324B53F82530034256D1314B43F825000122304B8E
:4013C00043F825202F4B53F825002F490B6823EA00030B602D4B43F825202D4B53F82520224B1A6000F0F2F8B0F1FF3F06D0294B53F82020244B1B689A420DD81B4B18680F
:40140000B0F1FF3F03D000221D4B43F8202040F0004001F01DF81AE00021194A42F82010184A52F820201343174A136000F08AF8164B53F8203043B10022144B43F8202023
:4014400040F0004001F004F801E001F001F800200A4B43F8250006E0022004E0022002E0012000E0002084F3108838BDDC81FF1FC883FF1FE02D00007C83FF1F6883FF1F43
:40148000F481FF1F082E00009883FF1F5483FF1FE081FF1F282E000008B500F053F8084B53F8203043B10022054B43F8202040F00040044B186008BD024B186008BD00BF54
:4014C0005483FF1FCC83FF1F10B500F07FF8124B1B68B0F1FF3F1AD0104A52F82010104A1268914213D9B3F1FF3F03D002240D4941F8234000210B4B43F820100A4B53F8FF
:4015000020301A43064B1A60FFF7C6FF10BD43F00043064A136010BDDC81FF1F282E00009883FF1FF481FF1F082E0000CC83FF1F034B1B6813B10022014B1A60704700BF72
:40154000BC83FF1FF0B4184B19880B0A174AD356B3F1FF3F01D1535601E008335BB2144D55F82320134850F82200134E56F8224045F82340114D2F6846F822702A60B4F1E6
:40158000FF3F09D10E4A42F82340012202FA03F321EA0301044B19800A4B19680A4A42F820101860F0BC70479483FF1F782C00009C81FF1FB887FF1F2081FF1F9083FF1F42
:4015C0005C81FF1FDC81FF1FE081FF1F0C4B1A88130A0C49CB56B3F1FF3F01D18B5601E008335BB2B3F1FF3F06D0074A52F82320064B53F8220070474FF0FF30704700BFBD
:401600009483FF1F782C00009C81FF1FB887FF1F30B4144B53F82020134C2368134951F823502560124C44F823004FF0FF3441F82340104951F82210A1420AD10E4951F8E7
:4016400020400E480188214301800D4941F8223002E0064840F82130064941F8223030BC704700BF3481FF1F9083FF1F2081FF1FB887FF1F5C81FF1F282E00009483FF1FCA
:401680009C81FF1F0022014B1A60FEE7C483FF1F08B5FFF7F7FF00BF08B572B6FFF7F8FF10B150F8210070474FF0FF30704700BF0122014B1A60FEE7C483FF1F70B505461B
:4016C000124B53F8306000241CE0104B03EBC50321465868FFF7E4FF0D4A52F82030013B42F820300B4B53F82030032B07D10222084B43F820200022074B43F82020FFF7FC
:4017000087FF0134B442E0D370BD00BF782D00004881FF1FF481FF1F7C83FF1F18B908B5FFF7CCFF08BD7047194B1A4ADA621A4A9A631A4ADA63EFF3108272B6184B1B68CA
:4017400013BB10B5044600F053F8164B1C600122134B1A602046FFF7E1FFFFF737FFB0F1FF3F0ED0104B53F82030104A11680B43136000220E4B43F82020FFF7E3FE00F00D
:4017800067FE62B6FFF794FF82F31088072070470080FF1F11240000D523000069020000C483FF1FE88BFF1F082E00009883FF1FF481FF1F08B5EFF3108272B6094B1968DC
:4017C000094B1B6833B94FF0FF30084B43F82100002000E0022010B9084600F092FE82F3108808BDDC81FF1FC883FF1F0C81FF1F70B5124B1E68EFF3108572B600F0D8FD83
:401800000F4A136843F07F4313600E4B33650621042000F077FA0C4C236843F0100323600A4BF3640721032000F06CFA236843F00803236085F3108870BD00BF08ED00E0B9
:4018400020ED00E0B103000000E100E05D04000008B51149012000F041FA0721012000F051FA00220D4B1A7072220D4B1A702022023B1A700B49022000F030FA0721022061
:4018800000F040FA0622084B1A70472210331A7002224E331A7008BDAD190000A083FF1F8B650040451A00002964004010B500F04BFE04460D4A137843F020031370023A2D
:4018C000137843F010031370094A0223136009490B7843F010030B70042307490B60136000F0DCF8204600F033FE10BD9B65004000E100E09764004080E200E008B5054B1B
:401900005B7823B9FFF7A4FF0122024B5A70FFF7CDFF08BDA083FF1F164BD9799B79DBB2994205D25A1E914214BF0022012204E0CA1AC72A14BF00220122002AECD1994261
:4019400007D10D4B1B7813F0040F02D10B4B18707047C72900D90021094B58540131054BD971054B1B7813F0020F02D00422054B1A607047A083FF1F6764004048640040C8
:401980009C92FF1F00E200E038B5074B5B782BB938BDFFF7C1FF0134A4B201E005460024285D0028F5D138BDA083FF1F1D4B1B78DBB213F01E0F05D01B4803F01E02017878
:4019C0000A43027003F0200303F0FF0233B3174B1978C9B2164B1B78DBB21648C154164B1B7813F0FF0F02D00121144B197010490B780133DBB20B700B78DBB2C72B02D900
:401A000000210B4B19700A4B1978C9B20C4B1B78DBB2994202D10121074B1970002AC5D1704700BF69650040A083FF1F48650040A383FF1FD491FF1FA483FF1FA583FF1F5F
:401A4000A283FF1F13E0104B1B78DBB2C72B02D900220D4B1A700C4A1378DBB20B49CB5CDBB20B490B7013780133DBB21370064B1B78DBB2074A1278934204D0064B1B78F7
:401A800013F0040FDFD07047A683FF1F9C92FF1F48640040A783FF1F67640040054A137843F0040313701032137843F004031370704700BFA24300400B4A7F231370802101
:401AC000517007E0DA0002F1804202F5F042013BDBB21370002BF5D1DB0003F1804303F5F04300221A7070473C82FF1F172815D831B103010A495A5C42F020025A5405E04B
:401B0000030107495A5C02F0DF025A540001044A835C43F00103835400207047012070471070004017280CD80001074BC1180A7942F004020A71C25C42F00102C254002061
:401B400070470120704700BF1070004017280BD80001064A835C03F0F103490001F00E011943815400207047012070471070004041F6FF73994201D14FF4005141F6FF73A2
:401B80009A4201D14FF40052172808D8C00000F1804000F5EC408180C280002070470120704700BF172805D8034B03EB0010417200207047012070471070004017281BD8C4
:401BC00010B4C00000F1804404F5EC44D201D2B201F07F01114321709DF804201201D2B203F00F03134363709DF8083003F00F03A3700020E07001E00120704710BC7047C7
:401C000010B500F0A1FC0A4B5B78182B0BD9084A1478013B5370E30003F1804303F5F0431B78137000E0FF2400F092FC204610BD3C82FF1F10F0800F0CD111F4704F0BD1AF
:401C4000C00000F1804000F5F04001808270C37000207047012070470120704710F0800F08D1C00000F1804000F5F0408180C280002070470120704701BE704708B5034B30
:401C80001B7A00FB03F000F057FC08BD4482FF1F0E4B1A7802F0FC0200F00300104318701A7842F080021A701A7802F07F021A7049011A7801F0600102F09F02114319700F
:401CC0001A7842F010021A70704700BF834300400122014B1A7070478443004070B504460E46074B1D681F2802D90020FFF7C4FF04F01F04103455F8240045F8246070BD02
:401D000008ED00E038B504460D46072902D90020FFF7B2FF1F2C02D90020FFF7ADFF04F01F0000F1604000F564406D01EDB2057038BD00BF024A137843F080031370704750
:401D40007D640040014B1880704700BF14680040014B1880704700BF94680040014B1880704700BF54680040014B1870704700BF8C640040014B1878704700BF6C64004064
:401D8000014B188880B27047B468004008B501E0FFF7F6FFFFF7EEFF10F0100FF8D108BD08B5144A137803F0C00343F0090313701D32137843F0010313700132137843F036
:401DC00001031370FF20FFF7BDFFFF20FFF7C0FF7F20FFF7C3FF0020FFF7C6FF00F0B4FB054A137843F01003137000F0B1FBFFF7CDFF08BD7D6400409C64004008B5054BB2
:401E00001B7823B9FFF7CCFF0122024B1A70FFF791FF08BDA983FF1F024A137843F08003137070477F640040014B1880704700BF1C680040014B1880704700BF9C6800403D
:401E4000014B1880704700BF5C680040014B1870704700BF8F640040014B1878704700BF6F640040014B188880B27047BC68004008B501E0FFF7F6FFFFF7EEFF10F0100F5E
:401E8000F8D108BD10B5144A137803F0C00343F0090313701F32137843F0010313700F4C237843F001032370FF20FFF7BDFFFF20FFF7C0FF7F20FFF7C3FF0020FFF7C6FF41
:401EC00000F042FB237843F01003237000F040FBFFF7CEFF10BD00BF7F6400409F64004008B5054B1B7823B9FFF7CCFF0122024B1A70FFF791FF08BDAA83FF1F044A1378BB
:401F000003F0BF03800100F0400018431070704700510040044A137803F0FE0300F0010018431070704700BF20510040044A137803F07F03C001C0B218431070704700BF86
:401F40000051004010B541F6FF734FF480420121022000F0D3F9084C207041F6FF731A460121042000F0E8F96070044800F002FA002000F005FA10BDAC83FF1FB120000057
:401F800070B52C4C2078FFF7CDFD6078FFF7CAFD294B1B78FF2B03D1FFF732FE264B1870254D2878062302460421FFF743FE214E341DA4B2224645F6A0312878FFF74EFE28
:401FC00029783078FFF7EEFD6B78FF2B02D1FFF717FE6870184D6878072302460421FFF729FE164A92B221466878FFF737FE114C69786078FFF7D6FD01212078FFF776FDE3
:4020000001216078FFF772FD00F09EFA0C4A137843F02003137000F09BFA0A4B1A7842F001021A701A7842F002021A700122064B1A6070BDAC83FF1F5482FF1F6493FF1F11
:40204000986500407864004080E200E008B5074B9B6823B9FFF776FF0122044B9A6000F037F9FFF78DFF024B1B7808BDAC83FF1F6964004008B500F039F908BD044B1B78D9
:4020800003F0FF020BB90028F8D01046704700BF69640040C0F10100034B33F91030034A1088181A00B270476493FF1F6C93FF1F704700BF024A137843F080031370704744
:4020C0007C640040014B1880704700BF18680040014B1880704700BF98680040014B1880704700BF58680040014B1870704700BF8D640040014B1878704700BF6D640040D4
:40210000014B188880B27047B868004008B501E0FFF7F6FFFFF7EEFF10F0100FF8D108BD10B5144A137803F0C00343F0090313702032137843F0010313700F4C237843F06B
:4021400001032370FF20FFF7BDFFFF20FFF7C0FF7F20FFF7C3FF0020FFF7C6FF00F0F4F9237843F01003237000F0F2F9FFF7CEFF10BD00BF7C6400409D64004008B5054B08
:402180001B7823B9FFF7CCFF0122024B1A70FFF791FF08BDB883FF1F08B50A280FD00C2802D0082806D102E04FF4805209E04FF4807206E00020FFF75FFD002201E04FF4C3
:4021C00080620021094B198042F2107303FB02F303F6C413064A82FB0302DB17C3EBE223044A1360044B198008BD00BF6A93FF1FAD8BDB687093FF1F6C93FF1F10B500F048
:40220000A3F90446184A137843F0010313701032137843F00103137002F5AA520832137843F0030313701822104B1A70013B1A7842F040021A701A7802F0FC021A70C82235
:40224000053B1A700222A3F597530C3B1A70084A137843F0080313700A20FFF70FFD204600F076F910BD00BFAB43004006590040275B004010B504460A280DD00C2802D04F
:40228000082804D101E0C22207E0422205E00020FFF7F2FCC22200E08222034B1A702046FFF77AFF10BD00BF0259004008B5064A137843F0060313700C20FFF7DBFF00226F
:4022C000024B1A8008BD00BF015900406893FF1F08B5054B1B7823B9FFF7E8FF0122024B1A70FFF78BFF08BDB983FF1F024A137843F001031370704700590040F0B583B015
:4023000016461F460B4C012525700023019300932B460A4601462846FFF750FC3A4631462078FFF725FC02212078FFF70FFC207803B0F0BD5682FF1FF0B583B016461F46DF
:402340000B4D00242C700194009423460A4601462046FFF733FC3A4631462878FFF708FC02212878FFF7F2FB287803B0F0BD00BF5782FF1F014B1B681864704708ED00E0CD
:402380004001C0B2014B1870704700BF00E400E0024B1878C0F30010704700BF01510040024B1878C0F3C000704700BF0151004018484FF47F0102680A43026016486FF063
:4023C0007F4102680A400260704714484FF080510160704772B611484FF000610160FFF773F80F48006800F0D3F858B10C4800684FF080730B4A0C490FB40FB46FF00600E3
:40240000004700BF6FF0060062B6004762B600DF08B0704720ED00E01CED00E004ED00E0CC83FF1F512400000D240000EFF30880054908600548006880F3088870470248D9
:40244000006880F3088870475882FF1F2882FF1F411C8900154A11440968154A136899421AD0F0B444464D4656465F46F0B400B5104C9B002344EFF308851D601160890031
:402480002144096881F3088802BC8E46F0BCA046A946B246BB46F0BC002806DB00B500F06BF802BC8E46FFF7D3BF7047642E00009C83FF1F2C82FF1FF0B444464D465646B0
:4024C0005F46F0B400B5EFF3038308B48000174901440968164A0244EFF30883136088471448804704BC4FF08070024382F3038801BC8646F0BCA046A946B246BB46F0BCC9
:40250000704780000A4901440A6882F3088804BC4FF08070024382F3038808BC9E46F0BCA046A946B246BB46F0BC70473C2E0000CC87FF1F592500000230800803D000BFF7
:4025400001380046FCD17047EFF3108072B6704780F31088704700BF08B572B6014B1868FFF7CFFFDC81FF1F08B5024B1868FFF7A3FF08BDDC81FF1F08B562B6FFF7F4FF76
:4025800072B600F041F8014B186808BDCC83FF1F00280BDA20F000400130054B53F82000044B1B68181A18BF0120704701207047642E00009C83FF1F054B53F82020054BFE
:4025C00053F820309A4201D101207047002070474881FF1FF42D000008B5FEF7B3FF084B53F8203043B10022054B43F8202040F00040044B186008BD024B186008BD00BF63
:402600005483FF1FCC83FF1F38B5364B1C680022354B1A60354A52F82430013342F82430334B53F824502046FFF7C6FF012801D0A54204D103222F4B43F8242003E0022212
:402640002C4B43F824202C4B53F824102B4A136823EA010313602A4B53F82440214B1C60B5F1FF3F0FD0234B53F82530032B07D10222204B43F825200022224B43F82520F9
:402680002846FEF7C5FFFEF7A1FFB0F1FF3F0BD1B4F1FF3F03D00022164B43F8242044F00044194B1C6038BD184B53F82020134B1B689A4208D800220E4B43F8242044F0E5
:4026C0000044114B1C6038BD00210A4A42F82010094A52F820201343084A1360FFF77CFF38BD00BFDC81FF1FBC83FF1F4881FF1F0C81FF1FF481FF1F082E00009883FF1F61
:40270000E081FF1F7C83FF1FCC83FF1F282E0000014B1868704700BFBC82FF1F0E4B70B51E460E4C0025E41AA410A54204D056F8253098470135F8E700F0EEFB084B094CB6
:402740001E46E41AA4100025A54204D056F8253098470135F8E770BD242F0000242F0000242F00002C2F000010B5431E0A44914204D011F8014B03F8014FF8E710BD03469B
:402780000244934202D003F8011BFAE7704700000000000000000100010001000100010001000100010002000200020002000200020002000200020002000200020003005A
:4027C000030003000300030003000300040004000400040004000400050005000500050005000600060006000600070007000700080008000800090009000A000A000A0021
:402800000B000B000C000C000D000D000E000F000F00100011001100120013001400150016001700180019001A001B001C001D001F002000210023002400260028002900BA
:402840002B002D002F0031003400360038003B003D0040004300460049004C004F00530057005B005F00630067006C00700075007B00800086008C00920098009F00A600DE
:40288000AD00B500BD00C500CE00D700E100EB00F50000010B011701240130013E014C015B016A017A018B019C01AF01C201D601EA01000217022E02470261027C02980218
:4028C000B502D402F402160339035D038303AB03D50300042D045D048E04C204F80430056B05A805E8052B067106BA0606075607A90700085B08B9081C098309EF09600AAA
:40290000D50A500BD10B560CE20C740D0D0EAC0E520F0010B510731138120713DF13C014AB15A116A117AD18C419E91A1A1C581DA51E00206B21E52271240E26BD278029AC
:40294000562B412D422F5A318933D1353338B03A493D0040D542CB45E2481C4C7A4FFF52AC56825A845EB3621267A26B66706075927A0080AA85958BC3913798F59EFEA582
:4029800058AD04B508BD66C524CE44D7CCE0C0EA25F5FFFF0A20524553544152544544204146544552205741544348444F472052455345542E200A000A205354415254451B
:4029C00044205749544820504F574552204F4E2052455345542E200A000000005761746368646F672053746174757320726567697374657220757064617465206661696C19
:402A000065642E200A0000004252414B4553204F4E2E200A000000004252414B4553204F46462E200A0000004272616B652053746174757320776173206E6F7420777269C6
:402A40007474656E20696E746F2068617264776172652E200A0000005370656564203A20000000005761746368646F672074696D657220646964206E6F74206F766572661A
:402A80006C6F772E200A00005761746368646F672074696D65722074657374696E672073746172746564202E2E2E200A00000000454E47494E4520555044415445442E20C6
:402AC0000A0000005370656564205369676E616C2041676520746F6F206F6C642069652E200000006D732E200A000000456E67696E652076616C756520776173206E6F747C
:402B0000207772697474656E20696E746F2068617264776172652E200A000000456E67696E65203A200000004A6F79737469636B204461746120496E76616C69642E205386
:402B400069676E616C20537461747573204572726F7220436F6465203A200000B10500000100000001000000950700000A0000009506000064000000F5040000020000000F
:402B800001000200000000008109000000000000000000000000000000000000000000000000000000000000000000000000000085090000000000000000000000000000FA
:402BC00000000000000000000000000000000000000000000000000000000000020000000000000001000000FC2B00000000000000000000000000000000000002000000A9
:402C00008909000000000000010000000000000001000000282C00000000000000000000000000000000000003000000105100401000305100404000F05100401000000066
:402C40000140001000140140000480180140800300400140000A004C01400002005001402000000060520040E8090048060000180140F00900488000FF000101020202022F
:402C800003030303030303030404040404040404040404040404040405050505050505050505050505050505050505050505050505050505050505050606060606060606EC
:402CC000060606060606060606060606060606060606060606060606060606060606060606060606060606060606060606060606060606060606060607070707070707074C
:402D000007070707070707070707070707070707070707070707070707070707070707070707070707070707070707070707070707070707070707070707070707070707D3
:402D4000070707070707070707070707070707070707070707070707070707070707070707070707070707070707070707070707070707070707070701000000802D00001D
:402D80000000000001000000020000000400000000000000FFFFFFFF00000000040000000000000000000000FFFFFFFF00000000000000000000000000000000010000000F
:402DC0000000000000000000010000000000000001000000102700000100000000000000000000000000000001000000010000000000000001000000010000000100000094
:402E00000100000001000000800000000100000020000000080000000400000001000000020000000400000001000000010000002000000008000000040000002903000082
:402E400079080000C5080000990800001D0900006925000069250000692500006925000069250000000000000000000000000000010000000200000003000000616C726DC5
:402E80005F6379636C69635F316D7300616C726D5F73797374656D5F316D730065765F6A6F79737469636B5F6F6E44617461000065765F73706565645F6F6E44617461004B
:402EC00065765F6379636C69635F316D7300000074736B5F696E69740000000074736B5F6261636B67726F756E64000074736B5F696E7075746F75747075740074736B5F38
:402F0000636F6E74726F6C0074736B5F73797374656D000043000000F8B500BFF8BC08BC9E4670474D000000ED0C0000F8B500BFF8BC08BC9E46704729000000502F00000B
:402F4000C880FF1FF8010000B810000000000000000000000000000000000000002C00000000000000000000D42B00000000000000000000AC2B0000000000000000000028
:402F8000842B00007C2E00008C2E000000000000FFFFFFFFFFFFFFFFFFFFFFFFFFFFFFFFFFFFFFFFFFFFFFFF01000000020000000300000004000000FFFFFFFF0000000010
:402FC000000000000500000003000000020000000100000001000000010000000100000001000000FFFFFFFFFFFFFFFFFFFFFFFFFFFFFFFFFFFFFFFFFFFFFFFFFFFFFFFFDE
:40300000FFFFFFFFFFFFFFFFFFFFFFFFFFFFFFFFFFFFFFFFFFFFFFFFFFFFFFFFFFFFFFFFFFFFFFFFFFFFFFFFFFFFFFFFFFFFFFFFFFFFFFFFFFFFFFFFFFFFFFFFFFFFFFFFD0
:40304000FFFFFFFFFFFFFFFFFFFFFFFFFFFFFFFFFFFFFFFFFFFFFFFFFFFFFFFFFFFFFFFFFFFFFFFFFFFFFFFFFFFFFFFFFFFFFFFFFFFFFFFFFFFFFFFFFFFFFFFF0300000089
:40308000030000000300000003000000030000009C2E0000B02E0000C02E0000D02E0000DC2E0000EC2E0000FC2E0000082F0000D491FF1F000000009087FF1FAC8FFF1FDA
:4030C000C08BFF1F7F800000030000000000E02EC05D00001800000000366E01FFFFFFFF000000000000000000000000000000000000000000000000000000000000000081
:4031000000000000142F000000000000000000000000000000000000000000000000000000000000000000000000000000000000000000000000000000000000000000004C
:40314000000000005C82FF1F000000000000000000000000000000000000000000000000000000000000000000000000000000000000000000000000000000000000000053
:40318000000000000000000000000000000000000000000000000000000000000000000000000000000000000000000000000000000000000000000000000000000000000F
:4031C00000000000000000000000000000000000000000000000000000000000000000000000000000000000000000000000000000000000000000000000000000000000CF
:40320000000000000000000000000000000000000000000000000000000000000000000000000000000000000000000000000000000000000000000000000000000000008E
:40324000000000000000000000000000000000000000000000000000000000000000000000000000000000000000000000000000000000000000000000000000000000004E
:020000040003F7
:0200000480007A
:4000000004520040015B00400464004003650040020101401802014029030140080401402B0501400F060140380701405C080140420901404C0A01404B0B0140530C01409F
:400040003F0D01404D0E01402D0F0140081401402E1501400C160140331701400A1801404B190140321A0140431B01400D4001401041014008420140024301400B45014015
:4000800007460140044701400448014001490140034C0140094D01400A5001400351014000030102103011102784870F8C0D8D0D8F0D880189388B728F40E64003010501FA
:4000C0000A010C011101140115011B011D0120012101240128012C0133013601580459045C115F01D804D904DC11DF01012002010520060109080A200B020D081026140441
:40010000150817811F80272029202E0230043210330334043520378139883A033D083E0183208402850486018C208D408F80A740C0C3C225C4F7CA84CCF7CECBE20858047B
:4001400059045C115F01D804D904DC11DF01012002010402052406010B420C040E4010041109158028842A012C202D012F033010310C330234943520380239813B403D0801
:40018000918097029C049D209E01A020A50CA742B780C0F3C239C48ECAD5CC77CE49E080E601EA40580459045C115F019801B401BE10D401D604D804D904DB04DC11DD20CB
:4001C000DF0101200209048205600601090C0A400B180E400F101020110113201404158017201A0829202A012C202D012F0230043302354036083720380239803B103D0882
:4002000058425A085B10638078027B8087849181940296409C049D209E01A020A50CA742C0D3C23EC4CECAD5CC73CE4DD60FD801E608008003200443061C07200A200C43AA
:400240000D140E34111C1302140315091644171019101A281C2A1E541F03248029102A552B0C2D0C2F113038311F320F34803520364038203A0A3E503F104023410445E014
:4002800046CB480E49FF4AFF4BFF4EF04F44500C52035302580459045A045B045C225D125F0166C06A406B028201910192029D04A303A801B003B102B301B504BF10C00426
:4002C000C704C9FFCA07CBFFCC40CD20CEF0CF05D008D401D804D90CDA04DB0CDC19DD12DF01E040E1A8E240E3200102044005140684072208020E0A0F20120815201704B2
:4003000019031CC21D041F19210222282404274029012F09310233403510360537403C013F884301461047224E80502451105214562057505A406D406E206F04794086A01B
:4003400090A094089512960598029B019C819F28A12CA205A460A708B412C0F8C2E8C462CA31CCF9CED0D0E1D608DE08E4021E0132014060410449FF4AFF4BFF4DA04F04D5
:4003800050185608580459045A045B045C115D905F01604062C06440654066C068C06AC06CC06EC0860887018A0C8D0698209A039C0C9D049E13A702A811A906AA06AC115E
:4003C000AE0EB430B501B60FB706B820B980BA80BF40C060C101C5D0C721C832C9FFCAFFCBFFCDAFCE0FCF04D018D804D904DA04DC12DF01E040E2C0E440E540E6C0E8C055
:40040000EAC0ECC0EEC00001010804080510089109080A100C200E021101122015401720182019081D501E0A25202620270528102C222D012F0830013128320134113540B6
:40044000370438A039033C813D423E103F04410244104504460148044B104F115502560558405F0C6002884090809511960797019C809D089E059F08A004A10DA620B00194
:40048000B108B302C06CC2CFC4CCCAF2CCF7CEFDD011D224D608D808E080E601020103020A0C0E0214042A022B013004310232083301340236013E104010410649FF4AFF05
:4004C0004BFF4DA04F04501852805405580459045A045B045C105F01604062C06440654066C068C06AC06CC06EC086048A048F0291019E039F05A201AA02B004B104B202D4
:40050000B401B502B701BE04C010C106C5D0C601C702C816C9FFCAFFCBFFCDAFCE0FCF04D018D280D405D804D904DA04DB04DF01E040E2C0E440E540E6C0E8C0EAC0ECC09C
:40054000EEC0000802040605074009800E2010881520180819041B021D801E682008211222402490250926012D193080310236213B403C103D083E013F8041804580480846
:4005800049014C084E014F80508859055A805E485F017340774085018C44951196079C819D089F08A104A501A621B001C0D6C221C44ACAE0CCA9CEF8D018D224D6DBE61049
:4005C0001701270137014030410649FF4AFF4BFF4DA04F045018580459045A045C015F01604062C06440654066C068C06AC06CC06EC087208A018B018D0191089604970280
:4006000099029F04A308A504AA01AB10AD10AE02B004B202B33EB401B701B908BE10BF04C030C102C5D0C610C702C81AC9FFCAFFCBFFCDAFCE0FCF04D018D280D405D804FE
:40064000D904DA04DB04DF01E040E2C0E440E540E6C0E8C0EAC0ECC0EEC001010220041009050A020F201011160817401C101D081E482002250426402B102C112D182E0138
:4006800031083480362137083E443F2040104508460848044F015404560857105E885F017740C04CC22DC4C5CAF2CCF2CE70D062D204D6D0580459045C115F01D804D9040C
:4006C000DC11DF010102020803020482050208010D201090110C132014011504168417602A842B022D042F823090324933813608376139808D208E089082918092829801DB
:400700009B20A104A302A608A904AA81AB20B201C09BC248C4FECADACCFFCE08EA05EC20580459045C115F0182019202B002B601D804D904DC11DF01028906810802092078
:400740000B010E480F03106013201441158018821A821B812A812C602F8031203209360C372039803B013D083E403F028002812082C083028C409180948296409F20A02070
:40078000A504A608A702AB10AC40C09BC2DBC49ECAC9CC67CED9E204E605EA24EE4883019701B701BF40D418D604D904DB04DD20DF0104AA05200D280E820F101481159093
:4007C000171A1D031E0422802580260827442C842D802E0832083501372438803A403B013C183D023E404404451247444E084F0157045B015E2060046280634067206C05E3
:400800006E036F10770A7D4080158D4090A49140932094019512960597409C819F08A12CA210A704AAA0AC01B340B648C0F0C2F0C4F0CAF0CCE2CEF1D0F0D220D621D84DE1
:40084000DE10E410EA21EE40580459045C115F0180FF8192832884188703880889FC8C048D04905C910392A195039683985C99239AA29BC09D499E049F30A010A4E7A5FC60
:40088000A618AB03AF03B098B118B240B3E0B41FB504B620B703B880BA22BE04D602D711D804D904DB04DC22DD20DF0101220240030205810608072009200C040D800E4422
:4008C00010101109131017061C091E54241025112711281129222B022C042E402F2031203581371439033B103D523E045E106D506F2074807608772289808D049102931068
:4009000094119640980599219A409B049D809E089F21A1A4A484A511A928B101B240C0FBC2F2C43ECA7FCCF4CEF5D620E640E820EC20128016803080330234103708380814
:400940003B803E808F02C430CCF0CE7007080B8057205F808380940897809C109F08A280A480C080C210D440D620E28080048A8094089C10A280A480B720E6809C10A48099
:4009800052205E0164408E209840B040D404D601D801E008E8011B0827808308B201C608C801EC01440184049B80D0042080B010B480C840B0409C01A004AB801101740429
:4009C0008901A004B001C408DE04E601EC040007010108020A060C070D010E0310061A021C0600FF0103100A808000004000000080024080201C100300030240000F041094
:400A0000401F80000013080C000C010004000000020800000104000008000013100120A000C0001CFF0F002000000220000010013204060001C0000E12FFFFFF62A0F0411A
:400A40000C000000000002390404040C22120001000000000000400200103010001010120000000000000000000000000000000018C0C00000030300800040808000800040
:400A8000000000000039390038000000000100000000000000000000000000000000000000000000000000000000000000000000000000000000000000000000000000008B
:400AC00000000000000000000000000000000000000000000000000000000000000000000000000000000000000000000000000000000000000000000000000000000000F6
:400B000000000000000000000000000000000000000000000000000000000000000000000000000000000000000000000000000000000000000000000000000000000000B5
:400B40000000000000000000000000000000000000000000000000000000000000000000000000000000000000000000000000000000000000000000000000000000000075
:400B80000000000000000000000000000000000000000000000000000000000000000000000000000000000000000000000000000000000000000000000000000000000035
:0200000490006A
:0400000000004007B5
:0200000490105A
:04000000BC90ACAF55
:0200000490303A
:02000000786C1A
:0200000490402A
:4000000000000000000000000000000000000000000000000000000000000000000000000000000000000000000000000000000000000000000000000000000000000000C0
:400040000000000000000000000000000000000000000000000000000000000000000000000000000000000000000000000000000000000000000000000000000000000080
:400080000000000000000000000000000000000000000000000000000000000000000000000000000000000000000000000000000000000000000000000000000000000040
:4000C0000000000000000000000000000000000000000000000000000000000000000000000000000000000000000000000000000000000000000000000000000000000000
:0200000490501A
:0C00000000012E16106900012E2A88D580
:00000001FF